:100EDF004200420514410040014100410141002CF4
:100EEF000041002D0052002EFF18C3FF1B8CFF1B6B
:0A0EFF00C0FF1BF4FF1C28FF1D18A4
:031EB800020FF521
:10171E0044542D343030005345540044542D363744
:10172E00300043483220534554004348312053453E
:10173E0054004D4F44453A20564F4C54004D4F44A3
:10174E00453A2054454D50004348322073656C662F
:10175E002D63616C69626564004348312073656C6A
:10176E00662D63616C696265640020202020202054
:0A177E00003C6368616E67653E0081
:100F090042005A0514410058014100590141004469
:100F19000041004500520046FF18C3FF1B8CFF1B10
:0A0F2900C0FF1BF4FF1C28FF1D1879
:100FF500E4900002F0A3F0A3F0A3F0121E84121EE9
:1010050001121C8F7F01121D607F02121D6090006E
:1010150059E0FF121A84900000EEF0A3EFF0121EC3
:01102500B317
:10102600E4900006F0121EC1900059E0FF121A84E7
:10103600900000EEF0A3EFF0900000E0FEA3E0FFCA
:101046007CC37D501205AFE47BFF7AFFF9F81204EA
:1010560095900002EEF0A3EFF0900045E0FB601DD6
:1010660090005AE0FEA3E0FF7C007D0A120379ACF3
:1010760006AD07900002E0FEA3E0FF802590000287
:10108600E0FEA3E0FF900044E0FD12192990000461
:10109600EEF0A3EFF090005AE0FCA3E0FD900045CF
:1010A600E0FB121649E4900006F0900058E0FF902D
:1010B6000006E0C39F4003021026E4FF12198D903C
:1010C6000007EFF0BF03031210E2900007E0B4043C
:0C10D60003121285900006E004F080CEAA
:1010E200E4900008F0A3F0A3F0A3F0121EC1121EB8
:1010F200B3121EC1900059E0FF121A847CC37D50C6
:101102001205AFE47BFF7AFFF9F81204959000080C
:10111200EEF0A3EFF0E4FF12198D90000CEFF090C7
:101122000045E0703A900008E0FEA3E0FF90004422
:10113200E0FD12192990000AEEF0A3EFF090005A98
:10114200E0FCA3E0FD900045E0FB1219E390000AE9
:10115200E0FEA3E0FF90005AE0FCA3E0FD803E9099
:10116200005AE0FEA3E0FF7C007D0A120379AC0680
:10117200AD07900008E0FEA3E0FF900045E0FB12FF
:1011820019E390005AE0FEA3E0FF7C007D0A1203FF
:1011920079AC06AD07900008E0FEA3E0FF900045A1
:1011A200E0FB121B1390000CE0640260030210F3D8
:0311B200121EB357
:0111B5002217
:101B130090000DEEF0A3EFF0A3ECF0A3EDF0EB706B
:101B23001790000FE0FEA3E0FFC390000EE09F902C
:101B3300000DE09E4017801890000FE0FEA3E0FF29
:101B4300C390000EE09F90000DE09E4003021EBE76
:041B5300121EBB2281
:10128500E4900008F0A3F0121E6D90005AE0FEA352
:10129500E0FF900045E0FDA3A3E0FAA3E0F5828A14
:1012A500831205ADE4FF12198D900008EFF0640478
:1012B5007039A3E0B40504E4F08006900009E00469
:1012C500F090005AE0FEA3E0FF900045E0FD90009D
:1012D50009E075F003A42446F582E43400F583A300
:1012E500E0FAA3E0F5828A831205AD900008E06478
:1012F500017039A3E070057405F08006900009E0DF
:1013050014F090005AE0FEA3E0FF900045E0FD9048
:101315000009E075F003A42446F582E43400F58362
:10132500A3E0FAA3E0F5828A831205AD900008E0F8
:10133500B40203021EB3900008E0640360030212C6
:0A134500A9A3E0FF121D3F0212A948
:101D3F00EF146010146010146010146010240470FD
:101D4F000F020B480217F20215610216B412185B4C
:011D5F002261
:10156100E490000AF07FC9121E1E7F7E121CFD7FCF
:10157100C6121E1E7F7F121CFDE4FF12198D900002
:101581000AEFF064047012121EB39000447401F06B
:101591007BFF7A17791EE4801690000AE0640170DF
:1015A1002A121EB3E4900044F07BFF7A177929FDDB
:1015B100FF1211B67BFF7A1779257D01E4FF121125
:1015C100B67FE87E03121DE3E4800890000AE06420
:0815D1000270A6FFFE121BC010
:0115D90022EF
:1016B400E490000AF07FCC121E1E7F7E121CFD7F78
:1016C400C3121E1E7F7F121CFDE4FF12198D9000B1
:1016D4000AEFF0BF0411121EB39000597402F07B9C
:1016E400FF7A177930801690000AE0B4011E121EAA
:1016F400B39000597401F07BFF7A177938E4FDFF49
:101704001211B67FE87E03121DE3800790000AE001
:09171400B402B6E4FFFE121BF45E
:01171D0022A9
:1017F200E490000AF07FCB121E1E7F7E121CFD7F3A
:10180200C4121E1E7F7F121CFDE4FF12198D900070
:101812000AEFF0BF0412121EB39000457401F07B70
:10182200FF7A177940E4801590000AE0B4011C1297
:101832001EB3E4900045F07BFF7A17794BFDFF124F
:1018420011B67FE87E03121DE3800790000AE0B420
:0818520002B7E4FFFE121B8C3B
:01185A00226B
:10185B00E490000AF07FCC121E1E7F7E121CFD7FCF
:10186B00C3121E1E7F7F121CFDE4FF12198D900008
:10187B000AEFF0BF04107F02121D60121EB37BFF34
:10188B007A177956801590000AE0B4011D7F01127A
:10189B001D60121EB37BFF7A177967E4FDFF1211EF
:1018AB00B67FE87E03121DE3800790000AE0B402C6
:0718BB00B8E4FFFE121C2837
:0118C2002203
:100B4800E490000AF0A3F07BFF7A1779787D017FA3
:100B58000A1211B67BFF7A17797F7D017F0812117F
:100B6800B67F0E121E1E7FC0020D28E4FF12198DDB
:100B780090000AEFF064047026A3E0B40304E4F0E4
:100B8800800690000BE004F090000BE024C0FF12F8
:100B98001E1E90000BE0B4030624C1FF121E1E9017
:100BA800000AE064017026A3E070057403F0800673
:100BB80090000BE014F090000BE024C0FF121E1E02
:100BC80090000BE0B4030624C1FF121E1E90000A19
:100BD800E0B4021090005AE0FEA3E0FF1218C37FB1
:0F0BE8000C021E1E90000AE064036003020B73F0
:100BF70090000CF07F0F121E1EE4FF12198D90005B
:0A0C07000CEFF064046003020C8F90
:100C110090000EF0A304F090000BE0FFC374039F5B
:100C210090000DF090000DE0D39400401DA3E0FE74
:100C3100A3E0FF7C007D0A12037990000EEEF0A381
:100C4100EFF090000DE014F080DA90000EE0FEA3CA
:100C5100E0FF90005BE02FFD90005AE03EFCC3ED09
:100C610094ACEC940D500AA3E02FF090005AE03EB2
:100C7100F090005AE0FAA3E0FBE4900017F07D0148
:0E0C8100FF120D3D90000BE024C0FF121E1E5E
:080C8F0090000CE06401707A92
:100C970090000EF0A304F090000BE0FFC374039FD5
:100CA70090000DF090000DE0D39400401DA3E0FEEE
:100CB700A3E0FF7C007D0A12037990000EEEF0A3FB
:100CC700EFF090000DE014F080DA90000EE0FEA344
:100CD700E0FFC390005BE09FFF90005AE09EFED3C9
:100CE700EF9404EE94004005EEF0A3EFF090005A65
:100CF700E0FAA3E0FBE4900017F07D01FF120D3D41
:0A0D070090000BE024C0FF121E1E36
:100D110090000CE064026003020C007F0E121E1EA4
:0D0D210090000BE024C0FF121E1E020B7399
:10134F00414E4E45414C202050524F4700494E4987
:10135F0054004E4F573A20002320676F00534554D7
:10136F003A20006366670043616C6320496E6465D1
:10137F0078204174005E657363002D2D434F4E46F8
:10138F0049472D2D005345542054454D503A0023C5
:10139F00456E746572005E204261636B00574F5259
:1013AF004B204D4F44453A0054454D5000564F4C3D
:1013BF00540044494F44453A0044542D34303000D2
:1013CF0044542D363730004348414E4E454C3A0079
:1013DF00434831004348320053454C462D43414C5E
:1013EF0049423A00417574686F723A20436F6363E4
:1013FF006147756F005665723A20312E30203230BA
:06140F0032322E303100E4
:100F33004200720514410070014100710141005CDF
:100F43000041005D0052005EFF18C3FF1B8CFF1BB6
:0A0F5300C0FF1BF4FF1C28FF1D184F
:101E0100121EB37BFF7A13794FE4FD7F021211B6E4
:0D1E11007BFF7A13795C7D017F060211B61C
:10164900900008EEF0A3EFF0A3ECF0A3EDF0A3EB0C
:10165900F07BFF7A137961E4FDFF1211B69000085F
:10166900E0FAA3E0FB90000CE0900017F0E4FD7FA6
:1016790005120D3D7BFF7A137967E4FD7F0C12118A
:10168900B67BFF7A13796C7D01E4FF1211B69000E5
:101699000A120D2E7FCC121E1E7F7E121CFD7BFFAF
:0B16A9007A1379727D017F0D0211B6EB
:101B57009000B0EEF0A3EFF0121EB37BFF7A13797B
:101B670076E4FDFF1211B6900072E0FAA3E0FB9055
:101B7700005DE0900017F07D01E4FF120D3D7F64EA
:051B87007E00021DE3D9
:1019E30090000DEEF0A3EFF0A3ECF0A3EDF0A3EB6A
:1019F300F07BFF7A137961E4FDFF1211B690000DBD
:101A0300E0FAA3E0FB900011E0900017F0E4FD7F03
:101A130005120D3D7BFF7A13796C7D01E4FF1211F2
:101A2300B690000F120D2E7BFF7A1379847D017F10
:041A33000C0211B6DA
:101E6D00121EB37BFF7A137989E4FD7F031211B63D
:071E7D007FF47E01021DE36A
:1018C300900010EEF0A3EFF0A3EDF0121EB37BFF38
:1018D3007A137994E4FDFF1211B67BFF7A13799E94
:1018E3007D017F0A1211B67BFF7A1379A5E4FD7F90
:1018F3000A1211B6900012E0F96017900010E0FE92
:10190300A3E0FF7C007D0A120379900010EEF0A3A0
:10191300EFF0900010E0FAA3E0FB900017E9F07DF0
:0619230001E4FF020D3D8E
:101B8C0090000BEEF0A3EFF0A3EDF0121EB37BFF71
:101B9C007A1379ACE4FDFF1211B67BFF7A1379B797
:101BAC007D01E4FF1211B67BFF7A1379BC7D017FB6
:041BBC000C0211B650
:101BC00090000BEEF0A3EFF0A3EDF0121EB37BFF3D
:101BD0007A1379C1E4FDFF1211B67BFF7A1379C83D
:101BE0007D017F0A1211B67BFF7A1379CF7D01E464
:041BF000FF0211B629
:101BF40090000BEEF0A3EFF0A3EDF0121EB37BFF09
:101C04007A1379D6E4FDFF1211B67BFF7A1379DFDC
:101C14007D01E4FF1211B67BFF7A1379E37D017F26
:041C24000D0211B6E6
:101C280090000BEEF0A3EFF0A3EDF0121EB37BFFD4
:101C38007A1379E7E4FDFF1211B67BFF7A1379DF97
:101C48007D01E4FF1211B67BFF7A1379E37D017FF2
:041C58000D0211B6B2
:101D1800900000EEF0A3EFF0A3EDF0121EB37BFFEE
:101D28007A1379F3E4FDFF1211B67BFF7A14790474
:071D38007D01E4FF0211B67A
:0F0D2E00E0FAA3E0FBA3E0900017F07D017F0542
:0E0D3D00900013EFF0A3EDF0A3EAF0A3EBF0AB
:100D4B00E4900018F0A37430F0900017E060179057
:100D5B000015E0FEA3E0FF7C007D0A12038B9000E0
:100D6B0015EEF0A3EFF0900014E0B401069000181C
:100D7B007440F0900018E02480FF900013E02FFFE8
:100D8B00121E1E900015E0FEA3E0FF7C037DE8120F
:100D9B00038BEF4E6008900019E02FFF80027F203D
:100DAB00121CFD900013E0FF900018E02F2481FF30
:100DBB00121E1E900015E0FEA3E0FF7C007D641266
:100DCB00038B900019E02FFB900015E0FEA3E0FFD2
:100DDB007C037DE812038BEF75F00AA4FFC3EB9F36
:100DEB00FF121CFD900013E0FF900018E02F2482EF
:100DFB00FF121E1E900015E0FEA3E0FF7C007D0A93
:100E0B0012038BAA04AB05900015E0FEA3E0FF7C58
:100E1B00007D6412038BC3ED9BFFEC9AFE7C007D7F
:100E2B000A12038B900019E02FFF121CFD90001784
:100E3B00E0900013704EE0FF900018E02F2483FF2A
:100E4B00121E1E7F2E121CFD900013E0FF90001847
:100E5B00E02F2484FF121E1E900015E0FEA3E0FF7E
:100E6B007C007D0A12038B900019E02DFF121CFDF4
:100E7B00900013E0FF900018E02F2485FF121E1E38
:100E8B007F4B804CE0FF900018E02F2483FF121E55
:100E9B001E900015E0FEA3E0FF7C007D0A12038B81
:100EAB00900019E02DFF121CFD900013E0FF900045
:100EBB0018E02F2484FF121E1E7F6D121CFD900064
:100ECB0013E0FF900018E02F2485FF121E1E7F56A3
:030EDB00121CFDE9
:010EDE0022F1
:100F5D0042007F051441007D0141007E0141007B6F
:050F6D000041007C00C2
:101E1E00C2A6C2A5C2A78F807F017E00121DE3D28B
:0B1E2E00A77F017E00121DE3C2A72267
:0F1CEE00900014E0FBA3E0FAA3E0F9120360FFFB
:101CFD00D2A6C2A5C2A78F807F017E00121DE3D29E
:0B1D0D00A77F017E00121DE3C2A72289
:101E84007F38121E1E7F0C121E1E7F06121E1E7F1E
:041E940001021E1E0B
:051EB3007F01021E1E6C
:0E11B600900013EFF0A3EBF0A3EAF0A3E9F032
:1011C400E4A3F0EDD394014003021284900013E0F1
:1011D400940F4003021284EDC39401505390001401
:1011E400E0FBA3E0FAA3E0F91203607003021284A7
:1011F400900013E0FFC374109FFE900017E0FDC33E
:101204009E5008ED2480FEEF2E800C900013E0FF2A
:10121400900017E02F24B0FF121E1E121CEE900047
:1012240015E475F0011203E0900017E004F080ADBE
:10123400900014E0FBA3E0FAA3E0F912036060401D
:10124400900013E0FFC374109FFE900017E0FDC3ED
:101254009E5008ED24C0FEEF2E800C900013E0FF9A
:10126400900017E02F2470FF121E1E121CEE900037
:1012740015E475F0011203E0900017E004F080B06B
:011284002247
:100F720042008B05144100890141008A014100872A
:050F82000041008800A1
:101C8F007F0A7E00121DE3121E397F057E00121D92
:101C9F00E3121E547F057E00121DE37F20121EA348
:101CAF007F08121EA37F01121D607F057E00021D9B
:011CBF00E341
:101E3900D2917F017E00121DE3C2917F027E0012C2
:0B1E49001DE3D2917F017E00021DE32B
:101E5400C2907FFF121ADF7FFF121ADF7FFF121A70
:091E6400DF7FFF121ADFD2902289
:101ACE009000A5E0FCA3E0FDA3E0FEA3E0FF12055D
:011ADE0046C1
:051ADF00900015EFF07E
:101AE400E4A3F0900015E0FF30E704D2928002C234
:101AF40092C293EF25E0900015F0121EC1D293120A
:0E1B04001EC1900016E004F0E0C3940840D526
:011B120022B0
:101C5C00E4900014F0900013F0C293121EC1900097
:101C6C0014E0FF25E0F0309403E004F0D293121E50
:101C7C00C1900013E004F0E0C3940840DC90001421
:021C8C00E0FF77
:011C8E002233
:081EA300C290121ADFD2902256
:101DC3009000A512056CC2907810121ACE780812F2
:101DD3001ACE9000A5A3A3A3E0FF121ADFD290228C
:071EAB00C290121C5CD290F2
:011EB200220D
:101CC000C290121C5C900011E4F0A3EFF0E0F8E485
:101CD000F0E8900011F0121C5C900012E02FF090E0
:0D1CE0000011E03400F0D290E0FEA3E0FF20
:011CED0022D4
:10141500C290121C5CE4FCFDFE9000A912056C90C4
:1014250000A9E0FCA3E0FDA3E0FEA3E0FF7808121D
:1014350005599000A912056C9000A9E0F8A3E0F900
:10144500A3E0FAA3E0FBC000C001C002C003121C68
:101455005CE4FCFDFED003D002D001D000EB2FFFF1
:10146500EE3AFEED39FDEC38FC9000A912056C90C2
:1014750000A9E0FCA3E0FDA3E0FEA3E0FF780812CD
:1014850005599000A912056C9000A9E0F8A3E0F9B0
:10149500A3E0FAA3E0FBC000C001C002C003121C18
:1014A5005CE4FCFDFED003D002D001D000EB2FFFA1
:1014B500EE3AFEED39FDEC38FC9000A912056CD230
:0F14C500909000A9E0FCA3E0FDA3E0FEA3E0FFF0
:0114D40022F5
:1015DA0090001112057800000000E47F407E1FFD94
:1015EA00FC900011E0F8A3E0F9A3E0FAA3E0FBC342
:1015FA001205355024309521900011E0FCA3E0FD3E
:10160A00A3E0FEA3E02401FFE43EFEE43DFDE43C4A
:10161A00FC90001112056C80C1E47F407E1FFDFC26
:10162A00900011E0F8A3E0F9A3E0FAA3E0FBC312EB
:0E163A000535400A121E547F057E00121DE386
:01164800227F
:101A3700EF24F0601624F0601224C06016146013BF
:101A470024F1600F14600C247170319000867408C3
:101A5700F080069000867418F0121EA3900086E0AE
:101A6700900082B40808A3A3A3E0FF021EA3E0FC32
:0C1A7700A3E0FDA3E0FEA3E0FF121DC3EE
:011A83002240
:051788009000ADEFF040
:10178D0024F0601624F0601224C060161460132437
:10179D00F1600F14600C247170109000AE7408F09D
:1017AD00800F9000AE7418F0800774FFFFFEFDFCF3
:1017BD00229000ADE04408FF121EA39000AEE0B4ED
:1017CD001005121CC0800F9000AEE0B40805121E6B
:1017DD00AB80031214159000AFEFF09000AFE0FF57
:0417ED00E4FCFDFE1D
:0117F10022D5
:101D600090000BEFF0BF01047F10800990000BE0A2
:101D7000B4020D7F11121EA37F46121EA31215DAA4
:011D80002240
:101D81009000B2EFF0BF01047F1080099000B2E033
:101D9100B4020D7F11121EA37F86121EA31215DA43
:011DA100221F
:101DA2009000B3EFF0BF01047F1080099000B3E010
:101DB200B4020D7F11121EA37FC6121EA31215DAE2
:011DC20022FE
:051A840090000DEFF0E1
:101A8900E490000FF0A3F090000EF01215DA900028
:101A99000DE0B401047F38800990000DE0B402051F
:101AA9007F39121EA3121CC090000FEEF0A3EFF0B5
:101AB90090000EE004F0E0C3940240CF90000FE0E4
:041AC900FEA3E0FF99
:011ACD0022F6
:100F8700420079051441007701410078014100755D
:090F9700004100760041007401E4
:10198D00EF60069000747401F0900074E0640170D3
:10199D003030A00930A10630A20320A3247F647E3D
:1019AD0000121E98E4900074F020A0037F01222005
:1019BD00A1037F022220A2037F032220A3157F040F
:1019CD002230A00F30A10C30A20930A30690007474
:0519DD007401F07F0021
:0119E20022E2
:100FA000420091051441008F014100900141008DE4
:050FB0000041008E006D
:031EBB00C29622AA
:031EBE00D2962297
:1005DC000BB80B540AF00AAA0A8C0A2809C4096041
:1005EC0008FC0898083407D0076C070806A40640D6
:1005FC0005DC0578051404B0044C03E803840352AD
:10060C000320030502EE02BC028A025802440230A7
:10061C00021C020801F401E001CC01B801A4019014
:10062C000186017C01720168015E0154014A01409E
:10063C000136012C01220118010E010400FA00F010
:10064C0000E600DC00D200C800C300BE00B900B454
:10065C0000AF00AA00A500A0009B00960091008CA2
:10066C0000870082007D00780073006E00690064D2
:10067C00005F005A00550050004B00460041003C02
:10068C00003A00380036003400320030002E002CC6
:10069C00002A00280027002615E016C617AC1842C1
:1006AC001888196E1A4A1B301C0C1CE81DC41EA09D
:1006BC001F72204E212021F222BA2382244A2512B5
:1006CC0025D0268E2742279C27F62828285028A09C
:1006DC0028FA294A2968298629AE29CC29EA2A0828
:1006EC002A262A4E2A6C2A8A2A9E2AA82ABC2AD072
:1006FC002ADA2AEE2B022B0C2B202B342B482B5CCA
:10070C002B7A2B982BB62BFC2C922D6E2E2C2ECCC0
:10071C002F122F622FB22FF83048309830E8313832
:10072C00318831D83232328C32F0335433B83426EB
:10073C003494350C358E3610369C372837BE3868D5
:10074C00391239C63A7A3B2E3B7E3BC43C0A3C50AC
:10075C003C963CDC3D223D683DA43DEA3E083E26ED
:10076C000BB80B540AF00A8C0A2809C4096008FC5F
:10077C000898083407D0076C070806A4064005DC67
:10078C000578051404B0044C03E803B60384035243
:10079C00032002EE02BC028A025802440230021C00
:1007AC00020801F401E001CC01B801A40190017C24
:1007BC00016801540140012C01220118010E0104B1
:1007CC0000FA00F000E600DC00D200C800C300BE56
:1007DC0000B900B400AF00AA00A500A0009B0096D1
:1007EC000091008C00870082007D00780073006E01
:1007FC0000690064005F005A00550050004B004631
:10080C000041003C003700320030002E002C002A42
:10081C001446153616261716180618EC19DC1ACCC1
:10082C001BB21C981D881E6E1F4A2030211621F207
:10083C0022CE23A0247C254E2620268426E8274C75
:10084C0027A6280A286428C829222940296829862D
:10085C0029AE29D629F42A122A3A2A582A802A9E05
:10086C002AC62AEE2B162B3E2B522B702B8E2BB618
:10087C002BF22C602D282DFA2EB82F6C2FC6302081
:10088C00307A30CA3124317E31D83232329632F05D
:10089C00335433B83426348A34F8357035E8366A34
:1008AC0036EC3778380E38A4394E39F83AB63B74F2
:1008BC003C323CF03DAE3E6C3EB23EF83F3E3F8497
:100FB50042009705144100950141009601410093B7
:050FC500004100940052
:0E19290090000DEEF0A3EFF0ED90001460269C
:1019370074FFF0A37407F0A3746CF0A37458F090CD
:10194700000DE0FFA3E0900018CFF0A3EFF07BFFBE
:061957007A08791C8024CF
:10195D0074FFF0A37405F0A374DCF0A37464F0902D
:10196D00000DE0FFA3E0900018CFF0A3EFF07BFF98
:0F197D007A0679A41208CC90000FEEF0A3EFF0D9
:01198C002238
:100FCA0042009D051441009B0141009C014100998A
:050FDA000041009A0037
:0B08CC00900011EBF0A3EAF0A3E9F0AC
:1008D7001203F6FF900018E0FCA3E0FDD39FEC9510
:1008E700F05008E4A3F0A3F002099A900017E0245F
:1008F700FFFFE434FFFEEF25E0FFEE33FE9000112B
:10090700E0FBA3E0FAA3E0F98F828E83120421FFB4
:10091700C3ED9FEC95F04013900017E024FEFEE432
:1009270034FF90001AF0A3CEF0806890001AE4F02C
:10093700A304F0900017E0FF90001AE0FCA3E0FD8D
:10094700C39F7480F8EC6480985048ED25E0FFEC75
:1009570033FE900011E0FBA3E0FAA3E0F98F828E4B
:1009670083120421FFD3900019E09F900018E095AF
:10097700F0501090001BE024FFF090001AE034FFC5
:10098700F0801090001BE004F070A890001AE004BB
:10099700F080A090001BE02401FF90001AE03400D3
:1009A700FEEF25E0FFEE33FE900011E0FBA3E0FA37
:1009B700A3E0F98F828E83120421FDACF0E41202CA
:1009C700A690001C12056C90001BE025E0FF90002C
:1009D7001AE033FE900011E0FBA3E0FAA3E0F98FE1
:1009E700828E83120421FDACF0E41202A69000204F
:1009F70012056C90001BE02401FF90001AE0340000
:100A0700FEEF25E0FFEE33FE900014E0FBA3E0FAD3
:100A1700A3E0F98F828E83120421FDACF0E4120269
:100A2700A690002412056C90001BE025E0FF9000C3
:100A37001AE033FE900014E0FBA3E0FAA3E0F98F7D
:100A4700828E83120421FDACF0E41202A6900028E6
:100A570012056C900018E0FCA3E0FDE41202A690DA
:100A6700001CE0F8A3E0F9A3E0FAA3E0FB120006FC
:100A7700C004C005C006C00790001CE0F8A3E0F959
:100A8700A3E0FAA3E0FBA3E0FCA3E0FDA3E0FEA341
:100A9700E0FF120006A804A905AA06AB07D007D0F5
:100AA70006D005D004120204900028E0F8A3E0F96C
:100AB700A3E0FAA3E0FB1200FBE4FBFAF9783F128C
:100AC700000AC004C005C006C007900018E0FCA3D8
:100AD700E0FDE41202A6900020E0F8A3E0F9A3E00D
:100AE700FAA3E0FB120006C004C005C006C00790C9
:100AF7000020E0F8A3E0F9A3E0FAA3E0FB90001CD4
:100B0700E0FCA3E0FDA3E0FEA3E0FF120006A804BB
:100B1700A905AA06AB07D007D006D005D004120254
:100B270004900024E0F8A3E0F9A3E0FAA3E0FB12A5
:100B370000FBD003D002D001D00012000A1202DF5E
:010B4700228B
:100FDF004200A305144100A1014100A20141009F5D
:050FEF00004100A0001C
:0B1E9800EF1FAC0670011E4C70F6221C
:011EC10022FE
:101DE300D3EF9400EE940040147D6E7C00ED1D70E3
:0D1DF300011CED4C70F7EF1F70E61E80E341
:011E000022BF
:1000030002034BE86480F8E933E83360110460F0DD
:10001300ED33EC337009E8FCE9FDEAFEEBFF220463
:1000230060DED3EB9FEA9EE99DE8C2E78CF0C2F75E
:1000330095F0400CE8CCF8E9CDF9EACEFAEBCFFB2A
:1000430012031685D0F05804700320D5B3E804706A
:10005300075002B2D502035592D5EC0460F7E4CC05
:10006300C0E0C398F8603B94186008400DD0E0FBF3
:1000730002032DE4FBFAC9FC8028E830E406E4C956
:10008300FBE4CAFCE830E305E4C9CACBFCE8540747
:100093006010F8C3E913F9EA13FAEB13FBEC13FC52
:1000A300D8F130F52FC3E49CFCEF9BFFEE9AFEEDF5
:1000B30099FDD0E0FBEF4E4D4C701222DB0302039F
:1000C30052EC2CFCEF33FFEE33FEED33FDED30E766
:1000D300EB02032DEF2BFFEE3AFEED39FDD0E0FBF3
:1000E30050130BBB0003020355ED13FDEE13FEEF9C
:0800F30013FFEC13FC02032DC6
:1000FB00EC4D6011E8497017ED33EC3304600DE4FF
:10010B00FCFFFEFD22E933E8330470F802034B12C7
:10011B00031658046009E4CC2481500628500902C8
:10012B000355284003020352C0E0EB4A7044B980E8
:10013B0006D0E0FB020341EF4E701CBD8008EBFFC5
:10014B00EAFEE9FD80EBE98DF0A4FEE5F00201E4A7
:10015B00E9CDF9EAFEEBFFEF89F0A4FCE5F0CE89DF
:10016B00F0A42EFFE435F0CD89F0A42DFEE435F09C
:10017B008067EF4E7005BD80D780C3EF8BF0A4ACCA
:10018B00F0EE8BF0A42CFCE435F0F8EF8AF0A42C05
:10019B00E5F038FCE433CB8DF0A42CFCE5F03BF818
:1001AB00EE8AF0A42CFCE5F038F8E433CF89F0A408
:1001BB002CFCE5F038CF3400CE89F0A42FFFE5F00E
:1001CB003EFEE433C98DF0A42EFEE5F039CD8AF066
:1001DB00A42FFFE5F03EFEE43DFD33D0E0FB5007DE
:1001EB000BBB000F020355EC2CFCEF33FFEE33FE81
:0601FB00ED33FD02032DAF
:10020100020355EC5D046005E85904700302034BD9
:10021100120316580460F6EC4860F2EC7004FDFE1F
:10022100FF22C860DB2481C85009C39860025006D0
:100231000203529850CAF582E9294B4A7005AB82F4
:1002410002034175F0007C1A7880C3EF9BEE9AEDB2
:1002510099400DC3EF9BFFEE9AFEED99FDE842F048
:10026100DC23ACF0D0E0FFD0E0FED0E0FDAB82209B
:10027100E7101BEB60BAEC2CFCEF33FFEE33FEED25
:1002810033FD02032DE803F830E705C0F075F000F7
:10029100EF2FFFEE33FEED33FD40B830E7C280AA09
:1002A10075F020800E75F010800575F0087D007ED8
:1002B100007F003392D530D503120527EC3340106F
:1002C100EF33FFEE33FEED33FDEC33FCD5F0ED22E1
:0E02D100E5F0247EA2D513CC92E7CDCEFF221D
:1002DF00EDD2E7CD33EC3392D524814006E4FFFE17
:1002EF00FDFC22FCE4CFCECDCC24E0501174FF8076
:1002FF00EDC3CC13CCCD13CDCE13CECF13CF047013
:07030F00F030D5DE020527E6
:10031600E9D2E7C933E833F892D5EDD2E7CD33EC2D
:0703260033FC5002B2D522A6
:10032D00EC30E7100FBF000C0EBE00080DBD000431
:10033D000BEB6014A2D5EB13FCED92E7FD2274FFDD
:10034D00FCFDFEFF22E480F8A2D574FF13FC7D8036
:03035D00E480EF4A
:030000000214D512
:0C14D500787FE4F6D8FD75810702151C35
:10036000BB010689828A83E0225002E722BBFE029B
:09037000E32289828A83E49322CE
:10037900EF8DF0A4A8F0CF8CF0A428CE8DF0A42E98
:02038900FE2252
:10038B00BC000BBE0029EF8DF084FFADF022E4CC56
:10039B00F875F008EF2FFFEE33FEEC33FCEE9DEC1F
:1003AB00984005FCEE9DFE0FD5F0E9E4CEFD22ED65
:1003BB00F8F5F0EE8420D21CFEADF075F008EF2FAF
:1003CB00FFED33FD4007985006D5F0F222C398FDA0
:0503DB000FD5F0EA223D
:1003E000C5F0F8A3E028F0C5F0F8E58215827002A8
:0603F0001583E038F02245
:1003F600BB010A89828A83E0F5F0A3E022500687D2
:10040600F009E71922BBFE07E3F5F009E319228993
:0B041600828A83E493F5F074019322C6
:10042100BB0110E58229F582E5833AF583E0F5F019
:10043100A3E0225009E92582F886F008E622BBFEF6
:100441000AE92582F8E2F5F008E222E5832AF5833C
:08045100E993F5F0A3E9932201
:1004590075F008758200EF2FFFEE33FECD33CDCC5A
:1004690033CCC58233C5829BED9AEC99E5829840DD
:100479000CF582EE9BFEED9AFDEC99FC0FD5F0D6BA
:10048900E4CEFBE4CDFAE4CCF9A88222B800C1B9E4
:100499000059BA002DEC8BF084CFCECDFCE5F0CB22
:1004A900F97818EF2FFFEE33FEED33FDEC33FCEB5B
:1004B90033FB10D703994004EB99FB0FD8E5E4F916
:1004C900FA227818EF2FFFEE33FEED33FDEC33FC03
:1004D900C933C910D7059BE99A4007EC9BFCE99AF7
:1004E900F90FD8E0E4C9FAE4CCFB2275F010EF2F3C
:1004F900FFEE33FEED33FDCC33CCC833C810D7073C
:100509009BEC9AE899400AED9BFDEC9AFCE899F876
:0E0519000FD5F0DAE4CDFBE4CCFAE4C8F92209
:0E052700C3E49FFFE49EFEE49DFDE49CFC22E5
:10053500EB9FF5F0EA9E42F0E99D42F0E89C45F01C
:010545002293
:10054600E8600FECC313FCED13FDEE13FEEF13FF93
:03055600D8F122B7
:10055900E8600FEFC333FFEE33FEED33FDEC33FC00
:03056900D8F122A4
:0C056C00ECF0A3EDF0A3EEF0A3EFF02202
:10057800A8828583F0D083D08212058F12058F124E
:10058800058F12058FE473E493A3C583C5F0C58373
:10059800C8C582C8F0A3C583C5F0C583C8C582C8CD
:0105A8002230
:0605A9008A838982E473DD
:1005AF00EC8EF0A4CCC5F0CCCDF8EFA4CEC5F02DD9
:1005BF00FDE43CFCE8A42EC8C5F03DFDE43CFCEF97
:0D05CF00A4FFE5F028FEE43DFDE43CFC2225
:1014E100021EB8E493A3F8E493A34003F68001F24B
:1014F10008DFF48029E493A3F85407240CC8C3330C
:10150100C4540F4420C8834004F456800146F6DFDA
:10151100E4800B0102040810204080900EDFE47E7D
:10152100019360BCA3FF543F30E509541FFEE493CF
:10153100A360010ECF54C025E060A840B8E493A396
:10154100FAE493A3F8E493A3C8C582C8CAC583CAC1
:10155100F0A3C8C582C8CAC583CADFE9DEE780BE79
:010FF40000FC
:00000001FF
